{
  "contractName": "game",
  "abi": [
    {
      "constant": true,
      "inputs": [
        {
          "name": "",
          "type": "bytes32"
        },
        {
          "name": "",
          "type": "bytes32"
        }
      ],
      "name": "evulationMapping",
      "outputs": [
        {
          "name": "",
          "type": "uint8"
        }
      ],
      "payable": false,
      "stateMutability": "view",
      "type": "function",
      "signature": "0x47184019"
    },
    {
      "constant": true,
      "inputs": [],
      "name": "owner",
      "outputs": [
        {
          "name": "",
          "type": "address"
        }
      ],
      "payable": false,
      "stateMutability": "view",
      "type": "function",
      "signature": "0x8da5cb5b"
    },
    {
      "constant": true,
      "inputs": [
        {
          "name": "",
          "type": "address"
        }
      ],
      "name": "moneys",
      "outputs": [
        {
          "name": "",
          "type": "uint256"
        }
      ],
      "payable": false,
      "stateMutability": "view",
      "type": "function",
      "signature": "0xe4071306"
    },
    {
      "constant": true,
      "inputs": [
        {
          "name": "",
          "type": "bytes32"
        }
      ],
      "name": "games",
      "outputs": [
        {
          "name": "wager",
          "type": "uint256"
        },
        {
          "name": "state",
          "type": "uint8"
        }
      ],
      "payable": false,
      "stateMutability": "view",
      "type": "function",
      "signature": "0xf579f882"
    },
    {
      "inputs": [],
      "payable": false,
      "stateMutability": "nonpayable",
      "type": "constructor",
      "signature": "constructor"
    },
    {
      "payable": true,
      "stateMutability": "payable",
      "type": "fallback"
    },
    {
      "anonymous": false,
      "inputs": [
        {
          "indexed": false,
          "name": "sender",
          "type": "address"
        },
        {
          "indexed": false,
          "name": "amount",
          "type": "uint256"
        }
      ],
      "name": "hello",
      "type": "event",
      "signature": "0xfb129803a248d4974538462200359fc800ceb4cc4e1f4d439b01db64afe4ed9b"
    },
    {
      "constant": false,
      "inputs": [
        {
          "name": "bastard",
          "type": "address"
        }
      ],
      "name": "challenge",
      "outputs": [],
      "payable": true,
      "stateMutability": "payable",
      "type": "function",
      "signature": "0x72fb9703"
    },
    {
      "constant": false,
      "inputs": [
        {
          "name": "challenger",
          "type": "address"
        }
      ],
      "name": "acceptChallenge",
      "outputs": [],
      "payable": true,
      "stateMutability": "payable",
      "type": "function",
      "signature": "0x4db347a3"
    },
    {
      "constant": false,
      "inputs": [
        {
          "name": "opponent",
          "type": "address"
        },
        {
          "name": "secretMove",
          "type": "bytes32"
        }
      ],
      "name": "play",
      "outputs": [],
      "payable": false,
      "stateMutability": "nonpayable",
      "type": "function",
      "signature": "0x9987680b"
    },
    {
      "constant": false,
      "inputs": [
        {
          "name": "opponent",
          "type": "address"
        },
        {
          "name": "move",
          "type": "string"
        },
        {
          "name": "movePassword",
          "type": "string"
        }
      ],
      "name": "finalizeMove",
      "outputs": [],
      "payable": false,
      "stateMutability": "nonpayable",
      "type": "function",
      "signature": "0x4bc5a73b"
    },
    {
      "constant": false,
      "inputs": [],
      "name": "cashOut",
      "outputs": [],
      "payable": false,
      "stateMutability": "nonpayable",
      "type": "function",
      "signature": "0x793cd71e"
    },
    {
      "constant": true,
      "inputs": [
        {
          "name": "gameHash",
          "type": "bytes32"
        },
        {
          "name": "player",
          "type": "uint8"
        }
      ],
      "name": "GetPlayerMove",
      "outputs": [
        {
          "name": "",
          "type": "bytes32"
        }
      ],
      "payable": false,
      "stateMutability": "view",
      "type": "function",
      "signature": "0xb1de8c43"
    },
    {
      "constant": true,
      "inputs": [
        {
          "name": "s1",
          "type": "string"
        },
        {
          "name": "s2",
          "type": "string"
        }
      ],
      "name": "GetHash",
      "outputs": [
        {
          "name": "",
          "type": "bytes32"
        }
      ],
      "payable": false,
      "stateMutability": "pure",
      "type": "function",
      "signature": "0x5ecf2d79"
    },
    {
      "constant": true,
      "inputs": [
        {
          "name": "s1",
          "type": "string"
        }
      ],
      "name": "GetHash",
      "outputs": [
        {
          "name": "",
          "type": "bytes32"
        }
      ],
      "payable": false,
      "stateMutability": "pure",
      "type": "function",
      "signature": "0x77ad6ed5"
    },
    {
      "constant": true,
      "inputs": [
        {
          "name": "_a",
          "type": "address"
        },
        {
          "name": "_b",
          "type": "address"
        }
      ],
      "name": "getPairHash",
      "outputs": [
        {
          "name": "",
          "type": "bytes32"
        }
      ],
      "payable": false,
      "stateMutability": "pure",
      "type": "function",
      "signature": "0xd7b7961c"
    }
  ],
  "bytecode": "0x608060405234801561001057600080fd5b5033600360006101000a81548173ffffffffffffffffffffffffffffffffffffffff021916908373ffffffffffffffffffffffffffffffffffffffff16021790555060006002600060405180807f50617065720000000000000000000000000000000000000000000000000000008152506005019050604051809103902060001916600019168152602001908152602001600020600060405180807f526f636b00000000000000000000000000000000000000000000000000000000815250600401905060405180910390206000191660001916815260200190815260200160002060006101000a81548160ff0219169083600281111561010d57fe5b021790555060016002600060405180807f50617065720000000000000000000000000000000000000000000000000000008152506005019050604051809103902060001916600019168152602001908152602001600020600060405180807f53636973736f7273000000000000000000000000000000000000000000000000815250600801905060405180910390206000191660001916815260200190815260200160002060006101000a81548160ff021916908360028111156101cd57fe5b0217905550600280600060405180807f50617065720000000000000000000000000000000000000000000000000000008152506005019050604051809103902060001916600019168152602001908152602001600020600060405180807f5061706572000000000000000000000000000000000000000000000000000000815250600501905060405180910390206000191660001916815260200190815260200160002060006101000a81548160ff0219169083600281111561028c57fe5b0217905550600280600060405180807f526f636b000000000000000000000000000000000000000000000000000000008152506004019050604051809103902060001916600019168152602001908152602001600020600060405180807f526f636b00000000000000000000000000000000000000000000000000000000815250600401905060405180910390206000191660001916815260200190815260200160002060006101000a81548160ff0219169083600281111561034b57fe5b021790555060006002600060405180807f526f636b000000000000000000000000000000000000000000000000000000008152506004019050604051809103902060001916600019168152602001908152602001600020600060405180807f53636973736f7273000000000000000000000000000000000000000000000000815250600801905060405180910390206000191660001916815260200190815260200160002060006101000a81548160ff0219169083600281111561040b57fe5b021790555060016002600060405180807f526f636b000000000000000000000000000000000000000000000000000000008152506004019050604051809103902060001916600019168152602001908152602001600020600060405180807f5061706572000000000000000000000000000000000000000000000000000000815250600501905060405180910390206000191660001916815260200190815260200160002060006101000a81548160ff021916908360028111156104cb57fe5b021790555060016002600060405180807f53636973736f72730000000000000000000000000000000000000000000000008152506008019050604051809103902060001916600019168152602001908152602001600020600060405180807f526f636b00000000000000000000000000000000000000000000000000000000815250600401905060405180910390206000191660001916815260200190815260200160002060006101000a81548160ff0219169083600281111561058b57fe5b0217905550600280600060405180807f53636973736f72730000000000000000000000000000000000000000000000008152506008019050604051809103902060001916600019168152602001908152602001600020600060405180807f53636973736f7273000000000000000000000000000000000000000000000000815250600801905060405180910390206000191660001916815260200190815260200160002060006101000a81548160ff0219169083600281111561064a57fe5b021790555060006002600060405180807f53636973736f72730000000000000000000000000000000000000000000000008152506008019050604051809103902060001916600019168152602001908152602001600020600060405180807f5061706572000000000000000000000000000000000000000000000000000000815250600501905060405180910390206000191660001916815260200190815260200160002060006101000a81548160ff0219169083600281111561070a57fe5b0217905550611569806200071f6000396000f3006080604052600436106100c5576000357c0100000000000000000000000000000000000000000000000000000000900463ffffffff16806347184019146101325780634bc5a73b146101935780634db347a3146102065780635ecf2d791461023c57806372fb9703146102ab57806377ad6ed5146102e1578063793cd71e146103385780638da5cb5b1461034f5780639987680b146103a6578063b1de8c43146103f7578063d7b7961c14610451578063e4071306146104d0578063f579f88214610527575b7ffb129803a248d4974538462200359fc800ceb4cc4e1f4d439b01db64afe4ed9b3334604051808373ffffffffffffffffffffffffffffffffffffffff1673ffffffffffffffffffffffffffffffffffffffff1681526020018281526020019250505060405180910390a1005b34801561013e57600080fd5b5061016f60048036038101908080356000191690602001909291908035600019169060200190929190505050610581565b6040518082600281111561017f57fe5b60ff16815260200191505060405180910390f35b34801561019f57600080fd5b50610204600480360381019080803573ffffffffffffffffffffffffffffffffffffffff1690602001909291908035906020019082018035906020019190919293919293908035906020019082018035906020019190919293919293905050506105b0565b005b61023a600480360381019080803573ffffffffffffffffffffffffffffffffffffffff169060200190929190505050610846565b005b34801561024857600080fd5b5061028d600480360381019080803590602001908201803590602001919091929391929390803590602001908201803590602001919091929391929390505050610911565b60405180826000191660001916815260200191505060405180910390f35b6102df600480360381019080803573ffffffffffffffffffffffffffffffffffffffff1690602001909291905050506109b5565b005b3480156102ed57600080fd5b5061031a600480360381019080803590602001908201803590602001919091929391929390505050610a8c565b60405180826000191660001916815260200191505060405180910390f35b34801561034457600080fd5b5061034d610b1f565b005b34801561035b57600080fd5b50610364610bf0565b604051808273ffffffffffffffffffffffffffffffffffffffff1673ffffffffffffffffffffffffffffffffffffffff16815260200191505060405180910390f35b3480156103b257600080fd5b506103f5600480360381019080803573ffffffffffffffffffffffffffffffffffffffff1690602001909291908035600019169060200190929190505050610c16565b005b34801561040357600080fd5b506104336004803603810190808035600019169060200190929190803560ff169060200190929190505050610d54565b60405180826000191660001916815260200191505060405180910390f35b34801561045d57600080fd5b506104b2600480360381019080803573ffffffffffffffffffffffffffffffffffffffff169060200190929190803573ffffffffffffffffffffffffffffffffffffffff169060200190929190505050610d98565b60405180826000191660001916815260200191505060405180910390f35b3480156104dc57600080fd5b50610511600480360381019080803573ffffffffffffffffffffffffffffffffffffffff169060200190929190505050610fdb565b6040518082815260200191505060405180910390f35b34801561053357600080fd5b506105566004803603810190808035600019169060200190929190505050610ff3565b6040518083815260200182600481111561056c57fe5b60ff1681526020019250505060405180910390f35b60026020528160005260406000206020528060005260406000206000915091509054906101000a900460ff1681565b6000806105bd3388610d98565b915060006105cc836000610d54565b50602060ff161180156105ef575060006105e7836001610d54565b50602060ff16115b15156105fa57600080fd5b6003600481111561060757fe5b600080846000191660001916815260200190815260200160002060010160009054906101000a900460ff16600481111561063d57fe5b1480610688575060048081111561065057fe5b600080846000191660001916815260200190815260200160002060010160009054906101000a900460ff16600481111561068657fe5b145b151561069357600080fd5b8585858560405160200180858580828437820191505083838082843782019150509450505050506040516020818303038152906040526040518082805190602001908083835b6020831015156106fe57805182526020820191506020810190506020830392506106d9565b6001836020036101000a038019825116818451168082178552505050505050905001915050604051809103902090503373ffffffffffffffffffffffffffffffffffffffff168773ffffffffffffffffffffffffffffffffffffffff1611156107d15761076c826000610d54565b60001916816000191614151561078157600080fd5b6107c182600088888080601f016020809104026020016040519081016040528093929190818152602001838380828437820191505050505050338b611024565b15156107cc57600080fd5b61083d565b6107dc826001610d54565b6000191681600019161415156107f157600080fd5b61083182600188888080601f0160208091040260200160405190810160405280939291908181526020018383808284378201915050505050508a33611024565b151561083c57600080fd5b5b50505050505050565b60006108523383610d98565b90506001600481111561086157fe5b600080836000191660001916815260200190815260200160002060010160009054906101000a900460ff16600481111561089757fe5b1415156108a357600080fd5b600080826000191660001916815260200190815260200160002060000154341415156108ce57600080fd5b6002600080836000191660001916815260200190815260200160002060010160006101000a81548160ff0219169083600481111561090857fe5b02179055505050565b60008484848460405160200180858580828437820191505083838082843782019150509450505050506040516020818303038152906040526040518082805190602001908083835b60208310151561097e5780518252602082019150602081019050602083039250610959565b6001836020036101000a03801982511681845116808217855250505050505090500191505060405180910390209050949350505050565b60006109c13383610d98565b9050600060048111156109d057fe5b600080836000191660001916815260200190815260200160002060010160009054906101000a900460ff166004811115610a0657fe5b141515610a1257600080fd5b662386f26fc1000034111515610a2757600080fd5b346000808360001916600019168152602001908152602001600020600001819055506001600080836000191660001916815260200190815260200160002060010160006101000a81548160ff02191690836004811115610a8357fe5b02179055505050565b60008282604051602001808383808284378201915050925050506040516020818303038152906040526040518082805190602001908083835b602083101515610aea5780518252602082019150602081019050602083039250610ac5565b6001836020036101000a0380198251168184511680821785525050505050509050019150506040518091039020905092915050565b6000600160003373ffffffffffffffffffffffffffffffffffffffff1673ffffffffffffffffffffffffffffffffffffffff168152602001908152602001600020549050600160003373ffffffffffffffffffffffffffffffffffffffff1673ffffffffffffffffffffffffffffffffffffffff168152602001908152602001600020600090553373ffffffffffffffffffffffffffffffffffffffff166108fc829081150290604051600060405180830381858888f19350505050158015610bec573d6000803e3d6000fd5b5050565b600360009054906101000a900473ffffffffffffffffffffffffffffffffffffffff1681565b6000610c223384610d98565b905060026004811115610c3157fe5b600080836000191660001916815260200190815260200160002060010160009054906101000a900460ff166004811115610c6757fe5b1480610cb3575060036004811115610c7b57fe5b600080836000191660001916815260200190815260200160002060010160009054906101000a900460ff166004811115610cb157fe5b145b1515610cbe57600080fd5b6003600080836000191660001916815260200190815260200160002060010160006101000a81548160ff02191690836004811115610cf857fe5b02179055503373ffffffffffffffffffffffffffffffffffffffff168373ffffffffffffffffffffffffffffffffffffffff161115610d4257610d3d81600084611231565b610d4f565b610d4e81600184611231565b5b505050565b600080600084600019166000191681526020019081526020016000206002016000836001811115610d8157fe5b815260200190815260200160002054905092915050565b60008173ffffffffffffffffffffffffffffffffffffffff168373ffffffffffffffffffffffffffffffffffffffff1610610ed2578183604051602001808373ffffffffffffffffffffffffffffffffffffffff1673ffffffffffffffffffffffffffffffffffffffff166c010000000000000000000000000281526014018273ffffffffffffffffffffffffffffffffffffffff1673ffffffffffffffffffffffffffffffffffffffff166c01000000000000000000000000028152601401925050506040516020818303038152906040526040518082805190602001908083835b602083101515610ea05780518252602082019150602081019050602083039250610e7b565b6001836020036101000a0380198251168184511680821785525050505050509050019150506040518091039020610fd3565b8282604051602001808373ffffffffffffffffffffffffffffffffffffffff1673ffffffffffffffffffffffffffffffffffffffff166c010000000000000000000000000281526014018273ffffffffffffffffffffffffffffffffffffffff1673ffffffffffffffffffffffffffffffffffffffff166c01000000000000000000000000028152601401925050506040516020818303038152906040526040518082805190602001908083835b602083101515610fa55780518252602082019150602081019050602083039250610f80565b6001836020036101000a03801982511681845116808217855250505050505090500191505060405180910390205b905092915050565b60016020528060005260406000206000915090505481565b60006020528060005260406000206000915090508060000154908060010160009054906101000a900460ff16905082565b60006110ff8686866040516020018082805190602001908083835b602083101515611064578051825260208201915060208101905060208303925061103f565b6001836020036101000a0380198251168184511680821785525050505050509050019150506040516020818303038152906040526040518082805190602001908083835b6020831015156110cd57805182526020820191506020810190506020830392506110a8565b6001836020036101000a0380198251168184511680821785525050505050509050019150506040518091039020611231565b6003600481111561110c57fe5b600080886000191660001916815260200190815260200160002060010160009054906101000a900460ff16600481111561114257fe5b141561118c576004600080886000191660001916815260200190815260200160002060010160006101000a81548160ff0219169083600481111561118257fe5b02179055506111d7565b611197868484611278565b6000806000886000191660001916815260200190815260200160002060010160006101000a81548160ff021916908360048111156111d157fe5b02179055505b600360048111156111e457fe5b600080886000191660001916815260200190815260200160002060010160009054906101000a900460ff16600481111561121a57fe5b1415151561122457fe5b6001905095945050505050565b806000808560001916600019168152602001908152602001600020600201600084600181111561125d57fe5b81526020019081526020016000208160001916905550505050565b6000600281111561128557fe5b60026000611294866000610d54565b6000191660001916815260200190815260200160002060006112b7866001610d54565b6000191660001916815260200190815260200160002060009054906101000a900460ff1660028111156112e657fe5b141561135e57600260008085600019166000191681526020019081526020016000206000015402600160008473ffffffffffffffffffffffffffffffffffffffff1673ffffffffffffffffffffffffffffffffffffffff16815260200190815260200160002060008282540192505081905550611538565b6001600281111561136b57fe5b6002600061137a866000610d54565b60001916600019168152602001908152602001600020600061139d866001610d54565b6000191660001916815260200190815260200160002060009054906101000a900460ff1660028111156113cc57fe5b141561144457600260008085600019166000191681526020019081526020016000206000015402600160008373ffffffffffffffffffffffffffffffffffffffff1673ffffffffffffffffffffffffffffffffffffffff16815260200190815260200160002060008282540192505081905550611537565b6064605a6000808660001916600019168152602001908152602001600020600001540281151561147057fe5b04600160008473ffffffffffffffffffffffffffffffffffffffff1673ffffffffffffffffffffffffffffffffffffffff168152602001908152602001600020600082825401925050819055506064605a600080866000191660001916815260200190815260200160002060000154028115156114e957fe5b04600160008373ffffffffffffffffffffffffffffffffffffffff1673ffffffffffffffffffffffffffffffffffffffff168152602001908152602001600020600082825401925050819055505b5b5050505600a165627a7a72305820c6bb17f94a053cd82c3f9f09d29a9e9d6eaee445a8bca3aa593c094712126e380029",
  "source": "pragma solidity 0.4.24;\n\ncontract game{\n    \n    struct Game {\n        uint wager;\n        GameState state;\n        mapping(uint => bytes32) playerMove;\n    }\n    \n    enum GameState { ready, challenged, accepted, playing, evaluating }\n    enum EvalState {win, lose, draw}\n    enum Players {player1, player2}\n    \n    mapping(bytes32 => Game) public games;\n    mapping(address => uint) public moneys;\n    mapping(bytes32 => mapping(bytes32 => EvalState)) public evulationMapping;\n    address public owner;\n    \n    constructor()\n    public\n    {\n        owner = msg.sender;\n        \n        evulationMapping[keccak256(\"Paper\")][keccak256(\"Rock\")] = EvalState.win;\n        evulationMapping[keccak256(\"Paper\")][keccak256(\"Scissors\")] = EvalState.lose;\n        evulationMapping[keccak256(\"Paper\")][keccak256(\"Paper\")] = EvalState.draw;\n        evulationMapping[keccak256(\"Rock\")][keccak256(\"Rock\")] = EvalState.draw;\n        evulationMapping[keccak256(\"Rock\")][keccak256(\"Scissors\")] = EvalState.win;\n        evulationMapping[keccak256(\"Rock\")][keccak256(\"Paper\")] = EvalState.lose;\n        evulationMapping[keccak256(\"Scissors\")][keccak256(\"Rock\")] = EvalState.lose;\n        evulationMapping[keccak256(\"Scissors\")][keccak256(\"Scissors\")] = EvalState.draw;\n        evulationMapping[keccak256(\"Scissors\")][keccak256(\"Paper\")] = EvalState.win;\n    }\n    \n    function challenge(address bastard)\n    external\n    payable\n    {\n        bytes32 gameHash = getPairHash(msg.sender, bastard);\n        \n        require(games[gameHash].state == GameState.ready);\n        require(msg.value > 10 finney);\n        \n        games[gameHash].wager = msg.value;\n        games[gameHash].state = GameState.challenged;\n    }\n    \n    function acceptChallenge(address challenger)\n    external\n    payable\n    {\n        bytes32 gameHash = getPairHash(msg.sender, challenger);\n        \n        require(games[gameHash].state == GameState.challenged);\n        require(msg.value == games[gameHash].wager);\n        \n        games[gameHash].state = GameState.accepted;\n    }\n    \n    function play(address opponent, bytes32 secretMove)\n    external\n    {\n        bytes32 gameHash = getPairHash(msg.sender, opponent);\n        \n        require(games[gameHash].state == GameState.accepted || games[gameHash].state == GameState.playing);\n        games[gameHash].state = GameState.playing;\n        \n        if (opponent > msg.sender)\n            SetPlayerMove(gameHash, Players.player1, secretMove);\n        else\n            SetPlayerMove(gameHash, Players.player2, secretMove);\n    }\n    \n    function finalizeMove(address opponent, string move, string movePassword)\n    external\n    {\n        bytes32 gameHash = getPairHash(msg.sender, opponent);\n        \n        require(\n            GetPlayerMove(gameHash, Players.player1).length > 0 && \n            GetPlayerMove(gameHash, Players.player2).length > 0);// both players have made their move\n        require(\n            games[gameHash].state == GameState.playing || \n            games[gameHash].state == GameState.evaluating);\n        \n        bytes32 verifiedMove = keccak256(abi.encodePacked(move, movePassword));\n        \n        if (opponent > msg.sender) // Player1\n        {\n            require(verifiedMove == GetPlayerMove(gameHash, Players.player1));\n            require(Evaluate(gameHash, Players.player1, move, msg.sender, opponent));            \n            \n        }\n        else // Player2\n        {            \n            require(verifiedMove == GetPlayerMove(gameHash, Players.player2));\n            require(Evaluate(gameHash, Players.player2, move, opponent, msg.sender));\n        }\n    }\n\n    function cashOut()\n    external\n    {\n        uint amount = moneys[msg.sender];\n        delete moneys[msg.sender];\n        msg.sender.transfer(amount);\n    }\n    \n    function Evaluate(bytes32 gameHash, Players player, string move, address p1Address, address p2Address)\n    internal\n    returns (bool)\n    {\n            SetPlayerMove(gameHash, player, keccak256(abi.encodePacked(move)));\n                \n            if(games[gameHash].state == GameState.playing) // 1st to evaulate\n            {\n                games[gameHash].state = GameState.evaluating;\n            }\n            else // 2nd to evaluate\n            {\n                Payout(gameHash, p1Address, p2Address);\n                games[gameHash].state = GameState.ready;\n            }\n            assert(games[gameHash].state != GameState.playing);\n            return true;\n    }\n    \n    function Payout(bytes32 gameHash, address p1Address, address p2Address)\n    internal\n    {\n        if (evulationMapping[GetPlayerMove(gameHash, Players.player1)][GetPlayerMove(gameHash, Players.player2)] == EvalState.win)\n        {\n            moneys[p1Address] += games[gameHash].wager * 2;\n        }\n        else if (evulationMapping[GetPlayerMove(gameHash, Players.player1)][GetPlayerMove(gameHash, Players.player2)] == EvalState.lose)\n        {\n            moneys[p2Address] += games[gameHash].wager * 2;\n        }\n        else\n        {\n            moneys[p1Address] += (games[gameHash].wager * 90)/100;\n            moneys[p2Address] += (games[gameHash].wager * 90)/100;\n        }\n            \n    }\n    \n    function GetPlayerMove(bytes32 gameHash, Players player)\n    public\n    view\n    returns (bytes32)\n    {\n        return games[gameHash].playerMove[uint(player)];\n    }\n    \n    function SetPlayerMove(bytes32 gameHash, Players player, bytes32 move)\n    internal\n    {\n        games[gameHash].playerMove[uint(player)] = move;\n    }\n\n    function GetHash(string s1)\n    external\n    pure\n    returns (bytes32)\n    {\n        return keccak256(abi.encodePacked(s1));\n    }\n\n    function GetHash(string s1, string s2)\n    external\n    pure\n    returns (bytes32)\n    {\n        return keccak256(abi.encodePacked(s1, s2));\n    }\n    \n    function getPairHash(address _a, address _b)\n    public\n    pure\n    returns (bytes32){\n        return (_a < _b) ? keccak256(abi.encodePacked(_a, _b)) :  keccak256(abi.encodePacked(_b, _a));\n    }\n    \n    function ()\n    external\n    payable\n    {\n        emit hello(msg.sender, msg.value);\n    }\n    \n    event hello(address sender, uint amount);\n    \n}",
  "sourcePath": "/home/kris/Documents/work/ReactPaperScissors/contracts/game.sol",
  "compiler": {
    "name": "solc",
    "version": "0.4.24+commit.e67f0147.Emscripten.clang"
  },
  "schemaVersion": "3.0.1",
  "updatedAt": "2019-01-10T20:24:32.241Z",
  "devdoc": {
    "methods": {}
  },
  "userdoc": {
    "methods": {}
  }
}